{"abi":[{"type":"constructor","inputs":[{"name":"_relays","type":"address[]","internalType":"address[]"},{"name":"_priceFeed","type":"address","internalType":"address"}],"stateMutability":"nonpayable"},{"type":"function","name":"addAllowance","inputs":[{"name":"allow","type":"address","internalType":"address"}],"outputs":[],"stateMutability":"nonpayable"},{"type":"function","name":"addRelay","inputs":[{"name":"_relay","type":"address","internalType":"address"}],"outputs":[],"stateMutability":"nonpayable"},{"type":"function","name":"allowances","inputs":[{"name":"","type":"address","internalType":"address"},{"name":"","type":"address","internalType":"address"}],"outputs":[{"name":"","type":"bool","internalType":"bool"}],"stateMutability":"view"},{"type":"function","name":"distributeBalance","inputs":[],"outputs":[],"stateMutability":"nonpayable"},{"type":"function","name":"getAllowance","inputs":[{"name":"from","type":"address","internalType":"address"},{"name":"to","type":"address","internalType":"address"}],"outputs":[{"name":"","type":"bool","internalType":"bool"}],"stateMutability":"view"},{"type":"function","name":"getPrice","inputs":[],"outputs":[{"name":"","type":"int256","internalType":"int256"}],"stateMutability":"view"},{"type":"function","name":"getStoragePrice","inputs":[{"name":"filesize","type":"uint64","internalType":"uint64"}],"outputs":[{"name":"","type":"uint256","internalType":"uint256"}],"stateMutability":"view"},{"type":"function","name":"owner","inputs":[],"outputs":[{"name":"","type":"address","internalType":"address"}],"stateMutability":"view"},{"type":"function","name":"postFile","inputs":[{"name":"merkle","type":"string","internalType":"string"},{"name":"filesize","type":"uint64","internalType":"uint64"}],"outputs":[],"stateMutability":"payable"},{"type":"function","name":"postFileFrom","inputs":[{"name":"from","type":"address","internalType":"address"},{"name":"merkle","type":"string","internalType":"string"},{"name":"filesize","type":"uint64","internalType":"uint64"}],"outputs":[],"stateMutability":"payable"},{"type":"function","name":"relays","inputs":[{"name":"","type":"uint256","internalType":"uint256"}],"outputs":[{"name":"","type":"address","internalType":"address"}],"stateMutability":"view"},{"type":"function","name":"removeAllowance","inputs":[{"name":"allow","type":"address","internalType":"address"}],"outputs":[],"stateMutability":"nonpayable"},{"type":"function","name":"removeRelay","inputs":[{"name":"_relay","type":"address","internalType":"address"}],"outputs":[],"stateMutability":"nonpayable"},{"type":"function","name":"renounceOwnership","inputs":[],"outputs":[],"stateMutability":"nonpayable"},{"type":"function","name":"transferOwnership","inputs":[{"name":"newOwner","type":"address","internalType":"address"}],"outputs":[],"stateMutability":"nonpayable"},{"type":"event","name":"OwnershipTransferred","inputs":[{"name":"previousOwner","type":"address","indexed":true,"internalType":"address"},{"name":"newOwner","type":"address","indexed":true,"internalType":"address"}],"anonymous":false},{"type":"event","name":"PostedFile","inputs":[{"name":"sender","type":"address","indexed":false,"internalType":"address"},{"name":"merkle","type":"string","indexed":false,"internalType":"string"},{"name":"size","type":"uint64","indexed":false,"internalType":"uint64"}],"anonymous":false},{"type":"error","name":"OwnableInvalidOwner","inputs":[{"name":"owner","type":"address","internalType":"address"}]},{"type":"error","name":"OwnableUnauthorizedAccount","inputs":[{"name":"account","type":"address","internalType":"address"}]}],"bytecode":{"object":"0x608060405234801561000f575f5ffd5b5060405161123738038061123783398101604081905261002e916101d9565b338061005457604051631e4fbdf760e01b81525f60048201526024015b60405180910390fd5b61005d816100e4565b505f8251116100ae5760405162461bcd60e51b815260206004820152601360248201527f6d7573742070726f766964652072656c61797300000000000000000000000000604482015260640161004b565b600280546001600160a01b0319166001600160a01b03831617905581516100dc906003906020850190610133565b5050506102b5565b5f80546001600160a01b038381166001600160a01b0319831681178455604051919092169283917f8be0079c531659141344cd1fd0a4f28419497f9722a3daafe3b4186f6b6457e09190a35050565b828054828255905f5260205f20908101928215610186579160200282015b8281111561018657825182546001600160a01b0319166001600160a01b03909116178255602090920191600190910190610151565b50610192929150610196565b5090565b5b80821115610192575f8155600101610197565b634e487b7160e01b5f52604160045260245ffd5b80516001600160a01b03811681146101d4575f5ffd5b919050565b5f5f604083850312156101ea575f5ffd5b82516001600160401b038111156101ff575f5ffd5b8301601f8101851361020f575f5ffd5b80516001600160401b03811115610228576102286101aa565b604051600582901b90603f8201601f191681016001600160401b0381118282101715610256576102566101aa565b604052918252602081840181019290810188841115610273575f5ffd5b6020850194505b838510156102995761028b856101be565b81526020948501940161027a565b5094506102ac92505050602084016101be565b90509250929050565b610f75806102c25f395ff3fe6080604052600436106100e4575f3560e01c80638da5cb5b11610087578063e1137f1911610057578063e1137f191461027c578063e94f12921461029b578063f2fde38b146102e7578063f51cb7ea14610306575f5ffd5b80638da5cb5b146101ec57806398d5fdca1461021c578063adadf22f1461023e578063cd151e9a1461025d575f5ffd5b806355b6ed5c116100c257806355b6ed5c14610144578063715018a61461017d5780637943da69146101915780638af86cfa146101a5575f5ffd5b806305ed7abf146100e85780630af4187d146100fd57806333a109e214610131575b5f5ffd5b6100fb6100f6366004610c6e565b610325565b005b348015610108575f5ffd5b5061011c610117366004610cc8565b610469565b60405190151581526020015b60405180910390f35b6100fb61013f366004610cf9565b6104bb565b34801561014f575f5ffd5b5061011c61015e366004610cc8565b600160209081525f928352604080842090915290825290205460ff1681565b348015610188575f5ffd5b506100fb6104ca565b34801561019c575f5ffd5b506100fb6104dd565b3480156101b0575f5ffd5b506100fb6101bf366004610d3b565b335f9081526001602090815260408083206001600160a01b0394909416835292905220805460ff19169055565b3480156101f7575f5ffd5b505f546001600160a01b03165b6040516001600160a01b039091168152602001610128565b348015610227575f5ffd5b5061023061066b565b604051908152602001610128565b348015610249575f5ffd5b506100fb610258366004610d3b565b6106ec565b348015610268575f5ffd5b506100fb610277366004610d3b565b610745565b348015610287575f5ffd5b50610204610296366004610d5b565b610850565b3480156102a6575f5ffd5b506100fb6102b5366004610d3b565b335f9081526001602081815260408084206001600160a01b03959095168452939052919020805460ff19169091179055565b3480156102f2575f5ffd5b506100fb610301366004610d3b565b610878565b348015610311575f5ffd5b50610230610320366004610d72565b6108b5565b336103705760405162461bcd60e51b8152602060048201526016602482015275496e76616c69642073656e646572206164647265737360501b60448201526064015b60405180910390fd5b61037a3384610469565b6103d15760405162461bcd60e51b815260206004820152602260248201527f4e6f20616c6c6f77616e636520666f72207468697320636f6e74726163742073604482015261195d60f21b6064820152608401610367565b5f6103db826108b5565b9050803410156103ea8261095f565b6040516020016103fa9190610d8b565b604051602081830303815290604052906104275760405162461bcd60e51b81526004016103679190610e04565b507feec71a1bccf8db8a089a3fd372775c0843febf2e2a2f21a08fac54681b5af97784848460405161045b93929190610e16565b60405180910390a150505050565b5f816001600160a01b0316836001600160a01b03160361048b575060016104b5565b506001600160a01b038082165f9081526001602090815260408083209386168352929052205460ff165b92915050565b6104c6338383610325565b5050565b6104d26109ef565b6104db5f610a1b565b565b5f546001600160a01b03163314806104f957506104f933610a6a565b61053a5760405162461bcd60e51b81526020600482015260126024820152716e6f74206f776e6572206f722072656c617960701b6044820152606401610367565b476002811161058b5760405162461bcd60e51b815260206004820152601c60248201527f6e6f7420656e6f7567682077656920746f2064697374726962757465000000006044820152606401610367565b5f610597600283610e67565b90506105aa5f546001600160a01b031690565b6001600160a01b03166108fc8290811502906040515f60405180830381858888f193505050501580156105df573d5f5f3e3d5ffd5b505f6105eb8284610e86565b6003549091505f906105fd9083610e67565b90505f5b600354811015610664576003818154811061061e5761061e610e99565b5f9182526020822001546040516001600160a01b039091169184156108fc02918591818181858888f1935050505015801561065b573d5f5f3e3d5ffd5b50600101610601565b5050505050565b5f5f60025f9054906101000a90046001600160a01b03166001600160a01b031663feaf968c6040518163ffffffff1660e01b815260040160a060405180830381865afa1580156106bd573d5f5f3e3d5ffd5b505050506040513d601f19601f820116820180604052508101906106e19190610ec6565b509195945050505050565b6106f46109ef565b600380546001810182555f919091527fc2575a0e9e593c00f959f8c92f12db2869c3395a3b0502d05e2516446f71f85b0180546001600160a01b0319166001600160a01b0392909216919091179055565b61074d6109ef565b60035460011061075b575f5ffd5b5f5b6003548110156104c657816001600160a01b03166003828154811061078457610784610e99565b5f918252602090912001546001600160a01b03160361084857600380546107ad90600190610e86565b815481106107bd576107bd610e99565b5f91825260209091200154600380546001600160a01b0390921691839081106107e8576107e8610e99565b905f5260205f20015f6101000a8154816001600160a01b0302191690836001600160a01b03160217905550600380548061082457610824610f14565b5f8281526020902081015f1990810180546001600160a01b03191690550190555050565b60010161075d565b6003818154811061085f575f80fd5b5f918252602090912001546001600160a01b0316905081565b6108806109ef565b6001600160a01b0381166108a957604051631e4fbdf760e01b81525f6004820152602401610367565b6108b281610a1b565b50565b5f5f6108bf61066b565b9050600f600261096067ffffffffffffffff86166210000081116108e35750621000005b5f81836108f08688610f28565b6108fa9190610f28565b6109049190610f28565b90505f6109178765010000000000610f28565b610925836305f5e100610f28565b61093790670de0b6b3a7640000610f28565b6109419190610e67565b9050805f03610953575065048c273950005b98975050505050505050565b60605f61096b83610ac6565b60010190505f8167ffffffffffffffff81111561098a5761098a610bb8565b6040519080825280601f01601f1916602001820160405280156109b4576020820181803683370190505b5090508181016020015b5f19016f181899199a1a9b1b9c1cb0b131b232b360811b600a86061a8153600a85049450846109be57509392505050565b5f546001600160a01b031633146104db5760405163118cdaa760e01b8152336004820152602401610367565b5f80546001600160a01b038381166001600160a01b0319831681178455604051919092169283917f8be0079c531659141344cd1fd0a4f28419497f9722a3daafe3b4186f6b6457e09190a35050565b5f805b600354811015610abe57826001600160a01b031660038281548110610a9457610a94610e99565b5f918252602090912001546001600160a01b031603610ab65750600192915050565b600101610a6d565b505f92915050565b5f8072184f03e93ff9f4daa797ed6e38ed64bf6a1f0160401b8310610b045772184f03e93ff9f4daa797ed6e38ed64bf6a1f0160401b830492506040015b6d04ee2d6d415b85acef81000000008310610b30576d04ee2d6d415b85acef8100000000830492506020015b662386f26fc100008310610b4e57662386f26fc10000830492506010015b6305f5e1008310610b66576305f5e100830492506008015b6127108310610b7a57612710830492506004015b60648310610b8c576064830492506002015b600a83106104b55760010192915050565b80356001600160a01b0381168114610bb3575f5ffd5b919050565b634e487b7160e01b5f52604160045260245ffd5b5f82601f830112610bdb575f5ffd5b813567ffffffffffffffff811115610bf557610bf5610bb8565b604051601f8201601f19908116603f0116810167ffffffffffffffff81118282101715610c2457610c24610bb8565b604052818152838201602001851015610c3b575f5ffd5b816020850160208301375f918101602001919091529392505050565b803567ffffffffffffffff81168114610bb3575f5ffd5b5f5f5f60608486031215610c80575f5ffd5b610c8984610b9d565b9250602084013567ffffffffffffffff811115610ca4575f5ffd5b610cb086828701610bcc565b925050610cbf60408501610c57565b90509250925092565b5f5f60408385031215610cd9575f5ffd5b610ce283610b9d565b9150610cf060208401610b9d565b90509250929050565b5f5f60408385031215610d0a575f5ffd5b823567ffffffffffffffff811115610d20575f5ffd5b610d2c85828601610bcc565b925050610cf060208401610c57565b5f60208284031215610d4b575f5ffd5b610d5482610b9d565b9392505050565b5f60208284031215610d6b575f5ffd5b5035919050565b5f60208284031215610d82575f5ffd5b610d5482610c57565b7f496e636f7272656374207061796d656e7420616d6f756e742c206e656564200081525f82518060208501601f85015e632077656960e01b601f939091019283015250602301919050565b5f81518084528060208401602086015e5f602082860101526020601f19601f83011685010191505092915050565b602081525f610d546020830184610dd6565b6001600160a01b03841681526060602082018190525f90610e3990830185610dd6565b905067ffffffffffffffff83166040830152949350505050565b634e487b7160e01b5f52601160045260245ffd5b5f82610e8157634e487b7160e01b5f52601260045260245ffd5b500490565b818103818111156104b5576104b5610e53565b634e487b7160e01b5f52603260045260245ffd5b805169ffffffffffffffffffff81168114610bb3575f5ffd5b5f5f5f5f5f60a08688031215610eda575f5ffd5b610ee386610ead565b60208701516040880151606089015192975090955093509150610f0860808701610ead565b90509295509295909350565b634e487b7160e01b5f52603160045260245ffd5b80820281158282048414176104b5576104b5610e5356fea26469706673582212207e3488fb93db51a2680726f9a360bd2e347c155123304726cb7fa0da3c5155e064736f6c634300081c0033","linkReferences":{}},"methodIdentifiers":{"addAllowance(address)":"e94f1292","addRelay(address)":"adadf22f","allowances(address,address)":"55b6ed5c","distributeBalance()":"7943da69","getAllowance(address,address)":"0af4187d","getPrice()":"98d5fdca","getStoragePrice(uint64)":"f51cb7ea","owner()":"8da5cb5b","postFile(string,uint64)":"33a109e2","postFileFrom(address,string,uint64)":"05ed7abf","relays(uint256)":"e1137f19","removeAllowance(address)":"8af86cfa","removeRelay(address)":"cd151e9a","renounceOwnership()":"715018a6","transferOwnership(address)":"f2fde38b"},"id":9}