{"abi":[{"type":"constructor","inputs":[{"name":"_relays","type":"address[]","internalType":"address[]"}],"stateMutability":"nonpayable"},{"type":"function","name":"addAllowance","inputs":[{"name":"allow","type":"address","internalType":"address"}],"outputs":[],"stateMutability":"nonpayable"},{"type":"function","name":"addRelay","inputs":[{"name":"_relay","type":"address","internalType":"address"}],"outputs":[],"stateMutability":"nonpayable"},{"type":"function","name":"allowances","inputs":[{"name":"","type":"address","internalType":"address"},{"name":"","type":"address","internalType":"address"}],"outputs":[{"name":"","type":"bool","internalType":"bool"}],"stateMutability":"view"},{"type":"function","name":"distributeBalance","inputs":[],"outputs":[],"stateMutability":"nonpayable"},{"type":"function","name":"getAllowance","inputs":[{"name":"from","type":"address","internalType":"address"},{"name":"to","type":"address","internalType":"address"}],"outputs":[{"name":"","type":"bool","internalType":"bool"}],"stateMutability":"view"},{"type":"function","name":"getPrice","inputs":[],"outputs":[{"name":"","type":"int256","internalType":"int256"}],"stateMutability":"view"},{"type":"function","name":"getStoragePrice","inputs":[{"name":"filesize","type":"uint64","internalType":"uint64"}],"outputs":[{"name":"","type":"uint256","internalType":"uint256"}],"stateMutability":"view"},{"type":"function","name":"owner","inputs":[],"outputs":[{"name":"","type":"address","internalType":"address"}],"stateMutability":"view"},{"type":"function","name":"postFile","inputs":[{"name":"merkle","type":"string","internalType":"string"},{"name":"filesize","type":"uint64","internalType":"uint64"}],"outputs":[],"stateMutability":"payable"},{"type":"function","name":"postFileFrom","inputs":[{"name":"from","type":"address","internalType":"address"},{"name":"merkle","type":"string","internalType":"string"},{"name":"filesize","type":"uint64","internalType":"uint64"}],"outputs":[],"stateMutability":"payable"},{"type":"function","name":"relays","inputs":[{"name":"","type":"uint256","internalType":"uint256"}],"outputs":[{"name":"","type":"address","internalType":"address"}],"stateMutability":"view"},{"type":"function","name":"removeAllowance","inputs":[{"name":"allow","type":"address","internalType":"address"}],"outputs":[],"stateMutability":"nonpayable"},{"type":"function","name":"removeRelay","inputs":[{"name":"_relay","type":"address","internalType":"address"}],"outputs":[],"stateMutability":"nonpayable"},{"type":"function","name":"renounceOwnership","inputs":[],"outputs":[],"stateMutability":"nonpayable"},{"type":"function","name":"transferOwnership","inputs":[{"name":"newOwner","type":"address","internalType":"address"}],"outputs":[],"stateMutability":"nonpayable"},{"type":"event","name":"Debug","inputs":[{"name":"message","type":"string","indexed":false,"internalType":"string"}],"anonymous":false},{"type":"event","name":"OwnershipTransferred","inputs":[{"name":"previousOwner","type":"address","indexed":true,"internalType":"address"},{"name":"newOwner","type":"address","indexed":true,"internalType":"address"}],"anonymous":false},{"type":"event","name":"PostedFile","inputs":[{"name":"sender","type":"address","indexed":false,"internalType":"address"},{"name":"merkle","type":"string","indexed":false,"internalType":"string"},{"name":"size","type":"uint64","indexed":false,"internalType":"uint64"}],"anonymous":false},{"type":"error","name":"OwnableInvalidOwner","inputs":[{"name":"owner","type":"address","internalType":"address"}]},{"type":"error","name":"OwnableUnauthorizedAccount","inputs":[{"name":"account","type":"address","internalType":"address"}]}],"bytecode":{"object":"0x608060405234801561001057600080fd5b5060405161111738038061111783398101604081905261002f916101c7565b338061005657604051631e4fbdf760e01b8152600060048201526024015b60405180910390fd5b61005f816100cb565b5060008151116100b15760405162461bcd60e51b815260206004820152601360248201527f6d7573742070726f766964652072656c61797300000000000000000000000000604482015260640161004d565b80516100c490600390602084019061011b565b5050610296565b600080546001600160a01b038381166001600160a01b0319831681178455604051919092169283917f8be0079c531659141344cd1fd0a4f28419497f9722a3daafe3b4186f6b6457e09190a35050565b828054828255906000526020600020908101928215610170579160200282015b8281111561017057825182546001600160a01b0319166001600160a01b0390911617825560209092019160019091019061013b565b5061017c929150610180565b5090565b5b8082111561017c5760008155600101610181565b634e487b7160e01b600052604160045260246000fd5b80516001600160a01b03811681146101c257600080fd5b919050565b6000602082840312156101d957600080fd5b81516001600160401b038111156101ef57600080fd5b8201601f8101841361020057600080fd5b80516001600160401b0381111561021957610219610195565b604051600582901b90603f8201601f191681016001600160401b038111828210171561024757610247610195565b60405291825260208184018101929081018784111561026557600080fd5b6020850194505b8385101561028b5761027d856101ab565b81526020948501940161026c565b509695505050505050565b610e72806102a56000396000f3fe6080604052600436106100e85760003560e01c80638da5cb5b1161008a578063e1137f1911610059578063e1137f191461028d578063e94f1292146102ad578063f2fde38b146102fb578063f51cb7ea1461031b57600080fd5b80638da5cb5b146101f857806398d5fdca1461022a578063adadf22f1461024d578063cd151e9a1461026d57600080fd5b806355b6ed5c116100c657806355b6ed5c1461014a578063715018a6146101855780637943da691461019a5780638af86cfa146101af57600080fd5b806305ed7abf146100ed5780630af4187d1461010257806333a109e214610137575b600080fd5b6101006100fb366004610ba8565b61033b565b005b34801561010e57600080fd5b5061012261011d366004610c06565b610482565b60405190151581526020015b60405180910390f35b610100610145366004610c39565b6104d6565b34801561015657600080fd5b50610122610165366004610c06565b600160209081526000928352604080842090915290825290205460ff1681565b34801561019157600080fd5b5061010061053c565b3480156101a657600080fd5b50610100610550565b3480156101bb57600080fd5b506101006101ca366004610c7e565b3360009081526001602090815260408083206001600160a01b0394909416835292905220805460ff19169055565b34801561020457600080fd5b506000546001600160a01b03165b6040516001600160a01b03909116815260200161012e565b34801561023657600080fd5b5061023f6106ea565b60405190815260200161012e565b34801561025957600080fd5b50610100610268366004610c7e565b61076f565b34801561027957600080fd5b50610100610288366004610c7e565b6107c9565b34801561029957600080fd5b506102126102a8366004610ca0565b6108dd565b3480156102b957600080fd5b506101006102c8366004610c7e565b3360009081526001602081815260408084206001600160a01b03959095168452939052919020805460ff19169091179055565b34801561030757600080fd5b50610100610316366004610c7e565b610907565b34801561032757600080fd5b5061023f610336366004610cb9565b610945565b336103865760405162461bcd60e51b8152602060048201526016602482015275496e76616c69642073656e646572206164647265737360501b60448201526064015b60405180910390fd5b6103903384610482565b6103e75760405162461bcd60e51b815260206004820152602260248201527f4e6f20616c6c6f77616e636520666f72207468697320636f6e74726163742073604482015261195d60f21b606482015260840161037d565b7f7cdb51e9dbbc205231228146c3246e7f914aa6d4a33170e43ecc8e3593481d1a60405161043a90602080825260119082015270696e746f20706f737446696c6546726f6d60781b604082015260600190565b60405180910390a17feec71a1bccf8db8a089a3fd372775c0843febf2e2a2f21a08fac54681b5af97783838360405161047593929190610cd4565b60405180910390a1505050565b6000816001600160a01b0316836001600160a01b0316036104a5575060016104d0565b506001600160a01b0380821660009081526001602090815260408083209386168352929052205460ff165b92915050565b7f7cdb51e9dbbc205231228146c3246e7f914aa6d4a33170e43ecc8e3593481d1a604051610525906020808252600d908201526c696e746f20706f737446696c6560981b604082015260600190565b60405180910390a161053833838361033b565b5050565b6105446109f3565b61054e6000610a20565b565b6000546001600160a01b031633148061056d575061056d33610a70565b6105ae5760405162461bcd60e51b81526020600482015260126024820152716e6f74206f776e6572206f722072656c617960701b604482015260640161037d565b47600281116105ff5760405162461bcd60e51b815260206004820152601c60248201527f6e6f7420656e6f7567682077656920746f206469737472696275746500000000604482015260640161037d565b600061060c600283610d58565b90506106206000546001600160a01b031690565b6001600160a01b03166108fc829081150290604051600060405180830381858888f19350505050158015610658573d6000803e3d6000fd5b5060006106658284610d7a565b6003549091506000906106789083610d58565b905060005b6003548110156106e3576003818154811061069a5761069a610d8d565b60009182526020822001546040516001600160a01b039091169184156108fc02918591818181858888f193505050501580156106da573d6000803e3d6000fd5b5060010161067d565b5050505050565b600080600260009054906101000a90046001600160a01b03166001600160a01b031663feaf968c6040518163ffffffff1660e01b815260040160a060405180830381865afa158015610740573d6000803e3d6000fd5b505050506040513d601f19601f820116820180604052508101906107649190610dbd565b509195945050505050565b6107776109f3565b600380546001810182556000919091527fc2575a0e9e593c00f959f8c92f12db2869c3395a3b0502d05e2516446f71f85b0180546001600160a01b0319166001600160a01b0392909216919091179055565b6107d16109f3565b6003546001106107e057600080fd5b60005b60035481101561053857816001600160a01b03166003828154811061080a5761080a610d8d565b6000918252602090912001546001600160a01b0316036108d5576003805461083490600190610d7a565b8154811061084457610844610d8d565b600091825260209091200154600380546001600160a01b03909216918390811061087057610870610d8d565b9060005260206000200160006101000a8154816001600160a01b0302191690836001600160a01b0316021790555060038054806108af576108af610e0f565b600082815260209020810160001990810180546001600160a01b03191690550190555050565b6001016107e3565b600381815481106108ed57600080fd5b6000918252602090912001546001600160a01b0316905081565b61090f6109f3565b6001600160a01b03811661093957604051631e4fbdf760e01b81526000600482015260240161037d565b61094281610a20565b50565b6000806109506106ea565b9050600f600261096067ffffffffffffffff86166210000081116109745750621000005b600081836109828688610e25565b61098c9190610e25565b6109969190610e25565b905060006109aa8765010000000000610e25565b6109b8836305f5e100610e25565b6109ca90670de0b6b3a7640000610e25565b6109d49190610d58565b9050806000036109e7575065048c273950005b98975050505050505050565b6000546001600160a01b0316331461054e5760405163118cdaa760e01b815233600482015260240161037d565b600080546001600160a01b038381166001600160a01b0319831681178455604051919092169283917f8be0079c531659141344cd1fd0a4f28419497f9722a3daafe3b4186f6b6457e09190a35050565b6000805b600354811015610ac657826001600160a01b031660038281548110610a9b57610a9b610d8d565b6000918252602090912001546001600160a01b031603610abe5750600192915050565b600101610a74565b50600092915050565b80356001600160a01b0381168114610ae657600080fd5b919050565b634e487b7160e01b600052604160045260246000fd5b600082601f830112610b1257600080fd5b813567ffffffffffffffff811115610b2c57610b2c610aeb565b604051601f8201601f19908116603f0116810167ffffffffffffffff81118282101715610b5b57610b5b610aeb565b604052818152838201602001851015610b7357600080fd5b816020850160208301376000918101602001919091529392505050565b803567ffffffffffffffff81168114610ae657600080fd5b600080600060608486031215610bbd57600080fd5b610bc684610acf565b9250602084013567ffffffffffffffff811115610be257600080fd5b610bee86828701610b01565b925050610bfd60408501610b90565b90509250925092565b60008060408385031215610c1957600080fd5b610c2283610acf565b9150610c3060208401610acf565b90509250929050565b60008060408385031215610c4c57600080fd5b823567ffffffffffffffff811115610c6357600080fd5b610c6f85828601610b01565b925050610c3060208401610b90565b600060208284031215610c9057600080fd5b610c9982610acf565b9392505050565b600060208284031215610cb257600080fd5b5035919050565b600060208284031215610ccb57600080fd5b610c9982610b90565b60018060a01b0384168152606060208201526000835180606084015260005b81811015610d105760208187018101516080868401015201610cf3565b506000608082850101526080601f19601f83011684010191505067ffffffffffffffff83166040830152949350505050565b634e487b7160e01b600052601160045260246000fd5b600082610d7557634e487b7160e01b600052601260045260246000fd5b500490565b818103818111156104d0576104d0610d42565b634e487b7160e01b600052603260045260246000fd5b805169ffffffffffffffffffff81168114610ae657600080fd5b600080600080600060a08688031215610dd557600080fd5b610dde86610da3565b60208701516040880151606089015192975090955093509150610e0360808701610da3565b90509295509295909350565b634e487b7160e01b600052603160045260246000fd5b80820281158282048414176104d0576104d0610d4256fea264697066735822122013f8da0118ef443cb49fcf401232eb9f7d51d8a2699c2bb2b3fd1382a101aaca64736f6c634300081a0033","linkReferences":{}},"methodIdentifiers":{"addAllowance(address)":"e94f1292","addRelay(address)":"adadf22f","allowances(address,address)":"55b6ed5c","distributeBalance()":"7943da69","getAllowance(address,address)":"0af4187d","getPrice()":"98d5fdca","getStoragePrice(uint64)":"f51cb7ea","owner()":"8da5cb5b","postFile(string,uint64)":"33a109e2","postFileFrom(address,string,uint64)":"05ed7abf","relays(uint256)":"e1137f19","removeAllowance(address)":"8af86cfa","removeRelay(address)":"cd151e9a","renounceOwnership()":"715018a6","transferOwnership(address)":"f2fde38b"},"id":9}